:100800002067736D20696E74657266616365202070
:1008100000206D616B652063616C6C696E67002000
:1008200063616C6C696E6720200061740D0A006161
:100830007464393637373935363433363B0D0A0070
:060840006174680D0A005E
:1008FD00E4FDFCC3ED9FEC9E5015E4FBFA0BBB0031
:0F090D00010ABA04F8BBFBF50DBD00010C80E434
:01091C0022B8
:0B099300E4F580F590F5A075B0FF22A0
:0F094F00D287C2A7D2A6C2A5D2A530870280F751
:01095E002276
:0E095F0012094F8F80D2A5C2A7C2A6C2A52240
:0E096D0012094F8F80D2A5D2A7C2A6C2A52222
:10091D007F3812095F7F0F12095F7F0612095F7F13
:09092D000112095F7F1C02095F41
:1008B3008B088A09890AAB08AA09A90A12093660B2
:1008C30013050AE50A7002050914F9120936FF1225
:0508D300096D80E22226
:0C097B00758920759850758DFDD28E2274
:1008D8008B088A09890AAB08AA09A90A120936608D
:1008E80013050AE50A7002050914F9120936FF1200
:0508F800099E80E222D0
:08099E008F993099FDC29922E6
:1008460012099312091D12097BD2907F0112095FCA
:100856007BFF7A0879001208B37FC012095F7BFF1D
:100866007A0879111208B37F647E001208FD309071
:10087600DA7F0112095F7BFF7A08791F1208B3122B
:04088600088A80C795
:10088A007BFF7A08792A1208D87F647E001208FD55
:10089A007BFF7A08792F1208D87F707E171208FD1D
:0908AA007BFF7A0879400208D8AE
:030000000209876B
:0C098700787FE4F6D8FD75810A0208466E
:10093600BB010689828A83E0225002E722BBFE02BF
:09094600E32289828A83E49322F2
:00000001FF
